{
  "contractName": "RiseHelper",
  "abi": [
    {
      "constant": true,
      "inputs": [
        {
          "name": "",
          "type": "uint256"
        }
      ],
      "name": "nodeletToOwner",
      "outputs": [
        {
          "name": "",
          "type": "address"
        }
      ],
      "payable": false,
      "stateMutability": "view",
      "type": "function"
    },
    {
      "constant": false,
      "inputs": [
        {
          "name": "_id",
          "type": "uint256"
        }
      ],
      "name": "_initializeNodelet",
      "outputs": [],
      "payable": true,
      "stateMutability": "payable",
      "type": "function"
    },
    {
      "constant": false,
      "inputs": [],
      "name": "renounceOwnership",
      "outputs": [],
      "payable": false,
      "stateMutability": "nonpayable",
      "type": "function"
    },
    {
      "constant": true,
      "inputs": [],
      "name": "owner",
      "outputs": [
        {
          "name": "",
          "type": "address"
        }
      ],
      "payable": false,
      "stateMutability": "view",
      "type": "function"
    },
    {
      "constant": true,
      "inputs": [],
      "name": "isOwner",
      "outputs": [
        {
          "name": "",
          "type": "bool"
        }
      ],
      "payable": false,
      "stateMutability": "view",
      "type": "function"
    },
    {
      "constant": true,
      "inputs": [
        {
          "name": "",
          "type": "uint256"
        }
      ],
      "name": "nodelets",
      "outputs": [
        {
          "name": "name",
          "type": "string"
        },
        {
          "name": "status",
          "type": "string"
        },
        {
          "name": "initialized",
          "type": "bool"
        },
        {
          "name": "factor",
          "type": "uint16"
        },
        {
          "name": "urlHash",
          "type": "uint256"
        },
        {
          "name": "dateCreated",
          "type": "uint256"
        },
        {
          "name": "dateInitialized",
          "type": "uint256"
        },
        {
          "name": "goodUntil",
          "type": "uint256"
        }
      ],
      "payable": false,
      "stateMutability": "view",
      "type": "function"
    },
    {
      "constant": false,
      "inputs": [
        {
          "name": "_fee",
          "type": "uint256"
        }
      ],
      "name": "setPerFactorFee",
      "outputs": [],
      "payable": false,
      "stateMutability": "nonpayable",
      "type": "function"
    },
    {
      "constant": false,
      "inputs": [
        {
          "name": "newOwner",
          "type": "address"
        }
      ],
      "name": "transferOwnership",
      "outputs": [],
      "payable": false,
      "stateMutability": "nonpayable",
      "type": "function"
    },
    {
      "anonymous": false,
      "inputs": [
        {
          "indexed": false,
          "name": "name",
          "type": "string"
        },
        {
          "indexed": false,
          "name": "nodeletId",
          "type": "uint256"
        },
        {
          "indexed": false,
          "name": "urlHash",
          "type": "uint256"
        },
        {
          "indexed": false,
          "name": "when",
          "type": "uint256"
        }
      ],
      "name": "NewNodelet",
      "type": "event"
    },
    {
      "anonymous": false,
      "inputs": [
        {
          "indexed": false,
          "name": "name",
          "type": "string"
        },
        {
          "indexed": false,
          "name": "nodeletId",
          "type": "uint256"
        },
        {
          "indexed": false,
          "name": "urlHash",
          "type": "uint256"
        },
        {
          "indexed": false,
          "name": "when",
          "type": "uint256"
        }
      ],
      "name": "InitializedNodelet",
      "type": "event"
    },
    {
      "anonymous": false,
      "inputs": [
        {
          "indexed": true,
          "name": "previousOwner",
          "type": "address"
        },
        {
          "indexed": true,
          "name": "newOwner",
          "type": "address"
        }
      ],
      "name": "OwnershipTransferred",
      "type": "event"
    },
    {
      "constant": false,
      "inputs": [
        {
          "name": "_nodeletId",
          "type": "uint256"
        },
        {
          "name": "_newName",
          "type": "string"
        }
      ],
      "name": "changeName",
      "outputs": [],
      "payable": false,
      "stateMutability": "nonpayable",
      "type": "function"
    },
    {
      "constant": false,
      "inputs": [
        {
          "name": "_nodeletId",
          "type": "uint256"
        },
        {
          "name": "_newUrl",
          "type": "string"
        }
      ],
      "name": "changeUrl",
      "outputs": [],
      "payable": false,
      "stateMutability": "nonpayable",
      "type": "function"
    },
    {
      "constant": true,
      "inputs": [
        {
          "name": "_owner",
          "type": "address"
        }
      ],
      "name": "getNodeletsByOwner",
      "outputs": [
        {
          "name": "",
          "type": "uint256[]"
        }
      ],
      "payable": false,
      "stateMutability": "view",
      "type": "function"
    }
  ],
  "bytecode": "0x608060405266038d7ea4c68000600255336000806101000a81548173ffffffffffffffffffffffffffffffffffffffff021916908373ffffffffffffffffffffffffffffffffffffffff1602179055506000809054906101000a900473ffffffffffffffffffffffffffffffffffffffff1673ffffffffffffffffffffffffffffffffffffffff16600073ffffffffffffffffffffffffffffffffffffffff167f8be0079c531659141344cd1fd0a4f28419497f9722a3daafe3b4186f6b6457e060405160405180910390a36115da806100da6000396000f3fe60806040526004361061009c5760003560e01c80639047fb23116100645780639047fb23146101e757806391132d8b1461028d578063c39cbef11461031d578063e0aee839146103ad578063e56fdbfa14610503578063f2fde38b1461053e5761009c565b80630c406b97146100a15780630ed930481461011c578063715018a61461014a5780638da5cb5b146101615780638f32d59b146101b8575b600080fd5b3480156100ad57600080fd5b506100da600480360360208110156100c457600080fd5b810190808035906020019092919050505061058f565b604051808273ffffffffffffffffffffffffffffffffffffffff1673ffffffffffffffffffffffffffffffffffffffff16815260200191505060405180910390f35b6101486004803603602081101561013257600080fd5b81019080803590602001909291905050506105c2565b005b34801561015657600080fd5b5061015f61096d565b005b34801561016d57600080fd5b50610176610aa6565b604051808273ffffffffffffffffffffffffffffffffffffffff1673ffffffffffffffffffffffffffffffffffffffff16815260200191505060405180910390f35b3480156101c457600080fd5b506101cd610acf565b604051808215151515815260200191505060405180910390f35b3480156101f357600080fd5b506102366004803603602081101561020a57600080fd5b81019080803573ffffffffffffffffffffffffffffffffffffffff169060200190929190505050610b26565b6040518080602001828103825283818151815260200191508051906020019060200280838360005b8381101561027957808201518184015260208101905061025e565b505050509050019250505060405180910390f35b34801561029957600080fd5b5061031b600480360360408110156102b057600080fd5b8101908080359060200190929190803590602001906401000000008111156102d757600080fd5b8201836020820111156102e957600080fd5b8035906020019184600183028401116401000000008311171561030b57600080fd5b9091929391929390505050610c53565b005b34801561032957600080fd5b506103ab6004803603604081101561034057600080fd5b81019080803590602001909291908035906020019064010000000081111561036757600080fd5b82018360208201111561037957600080fd5b8035906020019184600183028401116401000000008311171561039b57600080fd5b9091929391929390505050610d66565b005b3480156103b957600080fd5b506103e6600480360360208110156103d057600080fd5b8101908080359060200190929190505050610e52565b604051808060200180602001891515151581526020018861ffff1661ffff16815260200187815260200186815260200185815260200184815260200183810383528b818151815260200191508051906020019080838360005b8381101561045a57808201518184015260208101905061043f565b50505050905090810190601f1680156104875780820380516001836020036101000a031916815260200191505b5083810382528a818151815260200191508051906020019080838360005b838110156104c05780820151818401526020810190506104a5565b50505050905090810190601f1680156104ed5780820380516001836020036101000a031916815260200191505b509a505050505050505050505060405180910390f35b34801561050f57600080fd5b5061053c6004803603602081101561052657600080fd5b8101908080359060200190929190505050610ff2565b005b34801561054a57600080fd5b5061058d6004803603602081101561056157600080fd5b81019080803573ffffffffffffffffffffffffffffffffffffffff169060200190929190505050611076565b005b60036020528060005260406000206000915054906101000a900473ffffffffffffffffffffffffffffffffffffffff1681565b806003600082815260200190815260200160002060009054906101000a900473ffffffffffffffffffffffffffffffffffffffff1673ffffffffffffffffffffffffffffffffffffffff163373ffffffffffffffffffffffffffffffffffffffff161461067a576040517f08c379a000000000000000000000000000000000000000000000000000000000815260040180806020018281038252602481526020018061158b6024913960400191505060405180910390fd5b610682611453565b6001838154811061068f57fe5b906000526020600020906007020160405180610100016040529081600082018054600181600116156101000203166002900480601f0160208091040260200160405190810160405280929190818152602001828054600181600116156101000203166002900480156107425780601f1061071757610100808354040283529160200191610742565b820191906000526020600020905b81548152906001019060200180831161072557829003601f168201915b50505050508152602001600182018054600181600116156101000203166002900480601f0160208091040260200160405190810160405280929190818152602001828054600181600116156101000203166002900480156107e45780601f106107b9576101008083540402835291602001916107e4565b820191906000526020600020905b8154815290600101906020018083116107c757829003601f168201915b505050505081526020016002820160009054906101000a900460ff161515151581526020016002820160019054906101000a900461ffff1661ffff1661ffff16815260200160038201548152602001600482015481526020016005820154815260200160068201548152505090506001816040019015159081151581525050428160c00181815250506108a36001848154811061087d57fe5b906000526020600020906007020160020160019054906101000a900461ffff16346110fc565b8160e00181815250507f9227c0d00d314e1aa023083559b01f6f92fe6570a02c63339e1552aa7bada4dc8160000151848360800151426040518080602001858152602001848152602001838152602001828103825286818151815260200191508051906020019080838360005b8381101561092b578082015181840152602081019050610910565b50505050905090810190601f1680156109585780820380516001836020036101000a031916815260200191505b509550505050505060405180910390a1505050565b610975610acf565b6109e7576040517f08c379a00000000000000000000000000000000000000000000000000000000081526004018080602001828103825260208152602001807f4f776e61626c653a2063616c6c6572206973206e6f7420746865206f776e657281525060200191505060405180910390fd5b600073ffffffffffffffffffffffffffffffffffffffff166000809054906101000a900473ffffffffffffffffffffffffffffffffffffffff1673ffffffffffffffffffffffffffffffffffffffff167f8be0079c531659141344cd1fd0a4f28419497f9722a3daafe3b4186f6b6457e060405160405180910390a360008060006101000a81548173ffffffffffffffffffffffffffffffffffffffff021916908373ffffffffffffffffffffffffffffffffffffffff160217905550565b60008060009054906101000a900473ffffffffffffffffffffffffffffffffffffffff16905090565b60008060009054906101000a900473ffffffffffffffffffffffffffffffffffffffff1673ffffffffffffffffffffffffffffffffffffffff163373ffffffffffffffffffffffffffffffffffffffff1614905090565b606080600460008473ffffffffffffffffffffffffffffffffffffffff1673ffffffffffffffffffffffffffffffffffffffff16815260200190815260200160002054604051908082528060200260200182016040528015610b975781602001602082028038833980820191505090505b509050600080905060008090505b600180549050811015610c48578473ffffffffffffffffffffffffffffffffffffffff166003600083815260200190815260200160002060009054906101000a900473ffffffffffffffffffffffffffffffffffffffff1673ffffffffffffffffffffffffffffffffffffffff161415610c3b5780838381518110610c2657fe5b60200260200101818152505081806001019250505b8080600101915050610ba5565b508192505050919050565b826003600082815260200190815260200160002060009054906101000a900473ffffffffffffffffffffffffffffffffffffffff1673ffffffffffffffffffffffffffffffffffffffff163373ffffffffffffffffffffffffffffffffffffffff1614610d0b576040517f08c379a000000000000000000000000000000000000000000000000000000000815260040180806020018281038252602481526020018061158b6024913960400191505060405180910390fd5b82826040516020018083838082843780830192505050925050506040516020818303038152906040528051906020012060001c60018581548110610d4b57fe5b90600052602060002090600702016003018190555050505050565b826003600082815260200190815260200160002060009054906101000a900473ffffffffffffffffffffffffffffffffffffffff1673ffffffffffffffffffffffffffffffffffffffff163373ffffffffffffffffffffffffffffffffffffffff1614610e1e576040517f08c379a000000000000000000000000000000000000000000000000000000000815260040180806020018281038252602481526020018061158b6024913960400191505060405180910390fd5b828260018681548110610e2d57fe5b90600052602060002090600702016000019190610e4b92919061149e565b5050505050565b60018181548110610e5f57fe5b9060005260206000209060070201600091509050806000018054600181600116156101000203166002900480601f016020809104026020016040519081016040528092919081815260200182805460018160011615610100020316600290048015610f0b5780601f10610ee057610100808354040283529160200191610f0b565b820191906000526020600020905b815481529060010190602001808311610eee57829003601f168201915b505050505090806001018054600181600116156101000203166002900480601f016020809104026020016040519081016040528092919081815260200182805460018160011615610100020316600290048015610fa95780601f10610f7e57610100808354040283529160200191610fa9565b820191906000526020600020905b815481529060010190602001808311610f8c57829003601f168201915b5050505050908060020160009054906101000a900460ff16908060020160019054906101000a900461ffff16908060030154908060040154908060050154908060060154905088565b610ffa610acf565b61106c576040517f08c379a00000000000000000000000000000000000000000000000000000000081526004018080602001828103825260208152602001807f4f776e61626c653a2063616c6c6572206973206e6f7420746865206f776e657281525060200191505060405180910390fd5b8060028190555050565b61107e610acf565b6110f0576040517f08c379a00000000000000000000000000000000000000000000000000000000081526004018080602001828103825260208152602001807f4f776e61626c653a2063616c6c6572206973206e6f7420746865206f776e657281525060200191505060405180910390fd5b6110f981611172565b50565b60008082141561110e5742905061116c565b600061113b61112c6002548661ffff166112b690919063ffffffff16565b8461133c90919063ffffffff16565b905061115362015180826112b690919063ffffffff16565b905061116842826113cb90919063ffffffff16565b9150505b92915050565b600073ffffffffffffffffffffffffffffffffffffffff168173ffffffffffffffffffffffffffffffffffffffff1614156111f8576040517f08c379a00000000000000000000000000000000000000000000000000000000081526004018080602001828103825260268152602001806115446026913960400191505060405180910390fd5b8073ffffffffffffffffffffffffffffffffffffffff166000809054906101000a900473ffffffffffffffffffffffffffffffffffffffff1673ffffffffffffffffffffffffffffffffffffffff167f8be0079c531659141344cd1fd0a4f28419497f9722a3daafe3b4186f6b6457e060405160405180910390a3806000806101000a81548173ffffffffffffffffffffffffffffffffffffffff021916908373ffffffffffffffffffffffffffffffffffffffff16021790555050565b6000808314156112c95760009050611336565b60008284029050828482816112da57fe5b0414611331576040517f08c379a000000000000000000000000000000000000000000000000000000000815260040180806020018281038252602181526020018061156a6021913960400191505060405180910390fd5b809150505b92915050565b60008082116113b3576040517f08c379a000000000000000000000000000000000000000000000000000000000815260040180806020018281038252601a8152602001807f536166654d6174683a206469766973696f6e206279207a65726f00000000000081525060200191505060405180910390fd5b60008284816113be57fe5b0490508091505092915050565b600080828401905083811015611449576040517f08c379a000000000000000000000000000000000000000000000000000000000815260040180806020018281038252601b8152602001807f536166654d6174683a206164646974696f6e206f766572666c6f77000000000081525060200191505060405180910390fd5b8091505092915050565b6040518061010001604052806060815260200160608152602001600015158152602001600061ffff168152602001600081526020016000815260200160008152602001600081525090565b828054600181600116156101000203166002900490600052602060002090601f016020900481019282601f106114df57803560ff191683800117855561150d565b8280016001018555821561150d579182015b8281111561150c5782358255916020019190600101906114f1565b5b50905061151a919061151e565b5090565b61154091905b8082111561153c576000816000905550600101611524565b5090565b9056fe4f776e61626c653a206e6577206f776e657220697320746865207a65726f2061646472657373536166654d6174683a206d756c7469706c69636174696f6e206f766572666c6f774f6e6c7920746865206f776e65722063616e206d616e6970756c6174652061206e6f6465a165627a7a7230582063d55689260b21b9a51879bf10f44aa2ce30c0104c299c4b99390c956b5d591c0029",
  "source": "pragma solidity >=0.5.0;\n\nimport \"../node_modules/openzeppelin-solidity/contracts/math/SafeMath.sol\";\nimport \"./Rise.sol\";\n\n/// @title RiseHelper\n/// @dev Rise contract business and data logic\ncontract RiseHelper is Rise {\n\n    /// @dev change a nodelets name\n    function changeName(uint _nodeletId, string calldata _newName) external onlyOwnerOf(_nodeletId) {\n        nodelets[_nodeletId].name = _newName;\n    }\n\n    /// @dev change the nodelets source url hash\n    function changeUrl(uint _nodeletId, string calldata _newUrl) external onlyOwnerOf(_nodeletId) {\n        nodelets[_nodeletId].urlHash = uint(keccak256(abi.encodePacked(_newUrl)));\n    }\n\n    /// @dev get all nodelets owned by an account\n    function getNodeletsByOwner(address _owner) external view returns (uint[] memory) {\n        uint[] memory result = new uint[](ownerNodeletCount[_owner]);\n        uint counter = 0;\n        for (uint i = 0; i < nodelets.length; i++) {\n            if (nodeletToOwner[i] == _owner) {\n                result[counter] = i;\n                counter++;\n            }\n        }\n        return result;\n    }\n}",
  "sourcePath": "/Users/dylanfinn/dev/We_All_Rise/contracts/risehelper.sol",
  "compiler": {
    "name": "solc",
    "version": "0.5.8+commit.23d335f2.Emscripten.clang"
  },
  "schemaVersion": "3.0.11",
  "updatedAt": "2019-07-02T21:16:45.822Z",
  "devdoc": {
    "details": "Rise contract business and data logic",
    "methods": {
      "_initializeNodelet(uint256)": {
        "details": "initialize a nodelet"
      },
      "changeName(uint256,string)": {
        "details": "change a nodelets name"
      },
      "changeUrl(uint256,string)": {
        "details": "change the nodelets source url hash"
      },
      "getNodeletsByOwner(address)": {
        "details": "get all nodelets owned by an account"
      },
      "isOwner()": {
        "details": "Returns true if the caller is the current owner."
      },
      "owner()": {
        "details": "Returns the address of the current owner."
      },
      "renounceOwnership()": {
        "details": "Leaves the contract without owner. It will not be possible to call `onlyOwner` functions anymore. Can only be called by the current owner.     * > Note: Renouncing ownership will leave the contract without an owner, thereby removing any functionality that is only available to the owner."
      },
      "setPerFactorFee(uint256)": {
        "details": "set the per-factor fee"
      },
      "transferOwnership(address)": {
        "details": "Transfers ownership of the contract to a new account (`newOwner`). Can only be called by the current owner."
      }
    },
    "title": "RiseHelper"
  },
  "userdoc": {
    "methods": {
      "_initializeNodelet(uint256)": {
        "notice": "no logic relies on timestamps, so \"now\" is safe in this case"
      }
    }
  }
}