{
  "contractName": "Rise",
  "abi": [
    {
      "constant": true,
      "inputs": [
        {
          "name": "",
          "type": "uint256"
        }
      ],
      "name": "nodeletToOwner",
      "outputs": [
        {
          "name": "",
          "type": "address"
        }
      ],
      "payable": false,
      "stateMutability": "view",
      "type": "function"
    },
    {
      "constant": false,
      "inputs": [],
      "name": "renounceOwnership",
      "outputs": [],
      "payable": false,
      "stateMutability": "nonpayable",
      "type": "function"
    },
    {
      "constant": true,
      "inputs": [],
      "name": "owner",
      "outputs": [
        {
          "name": "",
          "type": "address"
        }
      ],
      "payable": false,
      "stateMutability": "view",
      "type": "function"
    },
    {
      "constant": true,
      "inputs": [],
      "name": "isOwner",
      "outputs": [
        {
          "name": "",
          "type": "bool"
        }
      ],
      "payable": false,
      "stateMutability": "view",
      "type": "function"
    },
    {
      "constant": true,
      "inputs": [
        {
          "name": "",
          "type": "uint256"
        }
      ],
      "name": "nodelets",
      "outputs": [
        {
          "name": "name",
          "type": "string"
        },
        {
          "name": "status",
          "type": "string"
        },
        {
          "name": "initialized",
          "type": "bool"
        },
        {
          "name": "factor",
          "type": "uint16"
        },
        {
          "name": "urlHash",
          "type": "uint256"
        },
        {
          "name": "dateCreated",
          "type": "uint256"
        },
        {
          "name": "dateInitialized",
          "type": "uint256"
        },
        {
          "name": "goodUntil",
          "type": "uint256"
        }
      ],
      "payable": false,
      "stateMutability": "view",
      "type": "function"
    },
    {
      "constant": false,
      "inputs": [
        {
          "name": "newOwner",
          "type": "address"
        }
      ],
      "name": "transferOwnership",
      "outputs": [],
      "payable": false,
      "stateMutability": "nonpayable",
      "type": "function"
    },
    {
      "anonymous": false,
      "inputs": [
        {
          "indexed": false,
          "name": "name",
          "type": "string"
        },
        {
          "indexed": false,
          "name": "nodeletId",
          "type": "uint256"
        },
        {
          "indexed": false,
          "name": "urlHash",
          "type": "uint256"
        },
        {
          "indexed": false,
          "name": "when",
          "type": "uint256"
        }
      ],
      "name": "NewNodelet",
      "type": "event"
    },
    {
      "anonymous": false,
      "inputs": [
        {
          "indexed": false,
          "name": "name",
          "type": "string"
        },
        {
          "indexed": false,
          "name": "nodeletId",
          "type": "uint256"
        },
        {
          "indexed": false,
          "name": "urlHash",
          "type": "uint256"
        },
        {
          "indexed": false,
          "name": "when",
          "type": "uint256"
        }
      ],
      "name": "InitializedNodelet",
      "type": "event"
    },
    {
      "anonymous": false,
      "inputs": [
        {
          "indexed": true,
          "name": "previousOwner",
          "type": "address"
        },
        {
          "indexed": true,
          "name": "newOwner",
          "type": "address"
        }
      ],
      "name": "OwnershipTransferred",
      "type": "event"
    },
    {
      "constant": false,
      "inputs": [
        {
          "name": "_id",
          "type": "uint256"
        }
      ],
      "name": "_initializeNodelet",
      "outputs": [],
      "payable": true,
      "stateMutability": "payable",
      "type": "function"
    },
    {
      "constant": false,
      "inputs": [
        {
          "name": "_fee",
          "type": "uint256"
        }
      ],
      "name": "setPerFactorFee",
      "outputs": [],
      "payable": false,
      "stateMutability": "nonpayable",
      "type": "function"
    }
  ],
  "bytecode": "0x608060405266038d7ea4c68000600255336000806101000a81548173ffffffffffffffffffffffffffffffffffffffff021916908373ffffffffffffffffffffffffffffffffffffffff1602179055506000809054906101000a900473ffffffffffffffffffffffffffffffffffffffff1673ffffffffffffffffffffffffffffffffffffffff16600073ffffffffffffffffffffffffffffffffffffffff167f8be0079c531659141344cd1fd0a4f28419497f9722a3daafe3b4186f6b6457e060405160405180910390a3611022806100da6000396000f3fe60806040526004361061007b5760003560e01c80638f32d59b1161004e5780638f32d59b14610197578063e0aee839146101c6578063e56fdbfa1461031c578063f2fde38b146103575761007b565b80630c406b97146100805780630ed93048146100fb578063715018a6146101295780638da5cb5b14610140575b600080fd5b34801561008c57600080fd5b506100b9600480360360208110156100a357600080fd5b81019080803590602001909291905050506103a8565b604051808273ffffffffffffffffffffffffffffffffffffffff1673ffffffffffffffffffffffffffffffffffffffff16815260200191505060405180910390f35b6101276004803603602081101561011157600080fd5b81019080803590602001909291905050506103db565b005b34801561013557600080fd5b5061013e610786565b005b34801561014c57600080fd5b506101556108bf565b604051808273ffffffffffffffffffffffffffffffffffffffff1673ffffffffffffffffffffffffffffffffffffffff16815260200191505060405180910390f35b3480156101a357600080fd5b506101ac6108e8565b604051808215151515815260200191505060405180910390f35b3480156101d257600080fd5b506101ff600480360360208110156101e957600080fd5b810190808035906020019092919050505061093f565b604051808060200180602001891515151581526020018861ffff1661ffff16815260200187815260200186815260200185815260200184815260200183810383528b818151815260200191508051906020019080838360005b83811015610273578082015181840152602081019050610258565b50505050905090810190601f1680156102a05780820380516001836020036101000a031916815260200191505b5083810382528a818151815260200191508051906020019080838360005b838110156102d95780820151818401526020810190506102be565b50505050905090810190601f1680156103065780820380516001836020036101000a031916815260200191505b509a505050505050505050505060405180910390f35b34801561032857600080fd5b506103556004803603602081101561033f57600080fd5b8101908080359060200190929190505050610adf565b005b34801561036357600080fd5b506103a66004803603602081101561037a57600080fd5b81019080803573ffffffffffffffffffffffffffffffffffffffff169060200190929190505050610b63565b005b60036020528060005260406000206000915054906101000a900473ffffffffffffffffffffffffffffffffffffffff1681565b806003600082815260200190815260200160002060009054906101000a900473ffffffffffffffffffffffffffffffffffffffff1673ffffffffffffffffffffffffffffffffffffffff163373ffffffffffffffffffffffffffffffffffffffff1614610493576040517f08c379a0000000000000000000000000000000000000000000000000000000008152600401808060200182810382526024815260200180610fd36024913960400191505060405180910390fd5b61049b610f40565b600183815481106104a857fe5b906000526020600020906007020160405180610100016040529081600082018054600181600116156101000203166002900480601f01602080910402602001604051908101604052809291908181526020018280546001816001161561010002031660029004801561055b5780601f106105305761010080835404028352916020019161055b565b820191906000526020600020905b81548152906001019060200180831161053e57829003601f168201915b50505050508152602001600182018054600181600116156101000203166002900480601f0160208091040260200160405190810160405280929190818152602001828054600181600116156101000203166002900480156105fd5780601f106105d2576101008083540402835291602001916105fd565b820191906000526020600020905b8154815290600101906020018083116105e057829003601f168201915b505050505081526020016002820160009054906101000a900460ff161515151581526020016002820160019054906101000a900461ffff1661ffff1661ffff16815260200160038201548152602001600482015481526020016005820154815260200160068201548152505090506001816040019015159081151581525050428160c00181815250506106bc6001848154811061069657fe5b906000526020600020906007020160020160019054906101000a900461ffff1634610be9565b8160e00181815250507f9227c0d00d314e1aa023083559b01f6f92fe6570a02c63339e1552aa7bada4dc8160000151848360800151426040518080602001858152602001848152602001838152602001828103825286818151815260200191508051906020019080838360005b83811015610744578082015181840152602081019050610729565b50505050905090810190601f1680156107715780820380516001836020036101000a031916815260200191505b509550505050505060405180910390a1505050565b61078e6108e8565b610800576040517f08c379a00000000000000000000000000000000000000000000000000000000081526004018080602001828103825260208152602001807f4f776e61626c653a2063616c6c6572206973206e6f7420746865206f776e657281525060200191505060405180910390fd5b600073ffffffffffffffffffffffffffffffffffffffff166000809054906101000a900473ffffffffffffffffffffffffffffffffffffffff1673ffffffffffffffffffffffffffffffffffffffff167f8be0079c531659141344cd1fd0a4f28419497f9722a3daafe3b4186f6b6457e060405160405180910390a360008060006101000a81548173ffffffffffffffffffffffffffffffffffffffff021916908373ffffffffffffffffffffffffffffffffffffffff160217905550565b60008060009054906101000a900473ffffffffffffffffffffffffffffffffffffffff16905090565b60008060009054906101000a900473ffffffffffffffffffffffffffffffffffffffff1673ffffffffffffffffffffffffffffffffffffffff163373ffffffffffffffffffffffffffffffffffffffff1614905090565b6001818154811061094c57fe5b9060005260206000209060070201600091509050806000018054600181600116156101000203166002900480601f0160208091040260200160405190810160405280929190818152602001828054600181600116156101000203166002900480156109f85780601f106109cd576101008083540402835291602001916109f8565b820191906000526020600020905b8154815290600101906020018083116109db57829003601f168201915b505050505090806001018054600181600116156101000203166002900480601f016020809104026020016040519081016040528092919081815260200182805460018160011615610100020316600290048015610a965780601f10610a6b57610100808354040283529160200191610a96565b820191906000526020600020905b815481529060010190602001808311610a7957829003601f168201915b5050505050908060020160009054906101000a900460ff16908060020160019054906101000a900461ffff16908060030154908060040154908060050154908060060154905088565b610ae76108e8565b610b59576040517f08c379a00000000000000000000000000000000000000000000000000000000081526004018080602001828103825260208152602001807f4f776e61626c653a2063616c6c6572206973206e6f7420746865206f776e657281525060200191505060405180910390fd5b8060028190555050565b610b6b6108e8565b610bdd576040517f08c379a00000000000000000000000000000000000000000000000000000000081526004018080602001828103825260208152602001807f4f776e61626c653a2063616c6c6572206973206e6f7420746865206f776e657281525060200191505060405180910390fd5b610be681610c5f565b50565b600080821415610bfb57429050610c59565b6000610c28610c196002548661ffff16610da390919063ffffffff16565b84610e2990919063ffffffff16565b9050610c406201518082610da390919063ffffffff16565b9050610c554282610eb890919063ffffffff16565b9150505b92915050565b600073ffffffffffffffffffffffffffffffffffffffff168173ffffffffffffffffffffffffffffffffffffffff161415610ce5576040517f08c379a0000000000000000000000000000000000000000000000000000000008152600401808060200182810382526026815260200180610f8c6026913960400191505060405180910390fd5b8073ffffffffffffffffffffffffffffffffffffffff166000809054906101000a900473ffffffffffffffffffffffffffffffffffffffff1673ffffffffffffffffffffffffffffffffffffffff167f8be0079c531659141344cd1fd0a4f28419497f9722a3daafe3b4186f6b6457e060405160405180910390a3806000806101000a81548173ffffffffffffffffffffffffffffffffffffffff021916908373ffffffffffffffffffffffffffffffffffffffff16021790555050565b600080831415610db65760009050610e23565b6000828402905082848281610dc757fe5b0414610e1e576040517f08c379a0000000000000000000000000000000000000000000000000000000008152600401808060200182810382526021815260200180610fb26021913960400191505060405180910390fd5b809150505b92915050565b6000808211610ea0576040517f08c379a000000000000000000000000000000000000000000000000000000000815260040180806020018281038252601a8152602001807f536166654d6174683a206469766973696f6e206279207a65726f00000000000081525060200191505060405180910390fd5b6000828481610eab57fe5b0490508091505092915050565b600080828401905083811015610f36576040517f08c379a000000000000000000000000000000000000000000000000000000000815260040180806020018281038252601b8152602001807f536166654d6174683a206164646974696f6e206f766572666c6f77000000000081525060200191505060405180910390fd5b8091505092915050565b6040518061010001604052806060815260200160608152602001600015158152602001600061ffff16815260200160008152602001600081526020016000815260200160008152509056fe4f776e61626c653a206e6577206f776e657220697320746865207a65726f2061646472657373536166654d6174683a206d756c7469706c69636174696f6e206f766572666c6f774f6e6c7920746865206f776e65722063616e206d616e6970756c6174652061206e6f6465a165627a7a72305820ee7f9cbf754dabc99f702a035cf5874dc506c9528fbe3b0e31d1d7fdab04f9430029",
  "source": "pragma solidity >=0.5.0;\n\nimport \"../node_modules/openzeppelin-solidity/contracts/math/SafeMath.sol\";\nimport \"../node_modules/openzeppelin-solidity/contracts/ownership/Ownable.sol\";\n\n/// @notice This is the core behavior smart contract\n/// for a non-fungible and decentralized cloud hosting service,\n/// designed for freedom, privacy, and fair pricing\n\n/// @title We All Rise\n/// @author Dylan Finn\n/// @notice draft and mvp design\n/// @dev conforms to the ERC721 non-fungible token standard\n/// @dev Rise contract behavior and framework\ncontract Rise is Ownable {\n    using SafeMath for uint256;\n    using SafeMath for uint32;\n    using SafeMath for uint16;\n    using SafeMath for uint;\n\n    event NewNodelet(string name, uint nodeletId, uint urlHash, uint when);\n    event InitializedNodelet(string name, uint nodeletId, uint urlHash, uint when);\n\n    struct Nodelet {\n        string name;\n        string status;\n        bool initialized;\n        uint16 factor;\n        uint256 urlHash;\n        uint256 dateCreated;\n        uint256 dateInitialized;\n        uint256 goodUntil;\n    }\n\n    /// @dev master nodelet list\n    /// @notice indexed by 1\n    Nodelet[] public nodelets;\n\n    /// @dev per-factor fee\n    uint perFactorFee = 0.001 ether;\n\n    mapping (uint => address) public nodeletToOwner;\n    mapping (address => uint) ownerNodeletCount;\n\n    modifier onlyOwnerOf(uint _nodeletId) {\n        require(msg.sender == nodeletToOwner[_nodeletId], \"Only the owner can manipulate a node\");\n        _;\n    }\n\n    /// @dev nodelet constructor\n    /// @notice no logic relies on timestamps, so \"now\" is safe in this case\n    /// @param _name new node name\n    /// @param _url github url with source code\n    function _newNodelet(string memory _name, string memory _url) internal returns (uint) {\n        uint _urlHash = uint(keccak256(abi.encodePacked(_url)));\n        uint id = nodelets.push(Nodelet(_name, \"new\", false, 0, _urlHash, 0, now, 0));\n        nodeletToOwner[id] = msg.sender;\n        ownerNodeletCount[msg.sender] = ownerNodeletCount[msg.sender].add(1);\n        emit NewNodelet(_name, id, _urlHash, now);\n    }\n\n    /// @dev calculates when the nodelet is good until given it's factor and amount\n    /// @notice timestamp logic uses safemath and the node does not run until initialized anyways\n    /// @param factor is the integer representation of the current resources this node uses\n    /// @param amount is the amount paid towards the goodUntil date\n    function _goodUntil(uint16 factor, uint256 amount) internal view returns (uint) {\n        if (amount == 0) {\n            return now;\n        } else {\n            uint until = amount.div(factor.mul(perFactorFee));\n            until = until.mul(1 days);\n            return until.add(now);\n        }\n    }\n\n    /// @dev initialize a nodelet\n    /// @notice no logic relies on timestamps, so \"now\" is safe in this case\n    function _initializeNodelet(uint _id) public payable onlyOwnerOf(_id) {\n        Nodelet memory curr = nodelets[_id];\n        curr.initialized = true;\n        curr.dateInitialized = now;\n        curr.goodUntil = _goodUntil(nodelets[_id].factor, msg.value);\n        emit InitializedNodelet(curr.name, _id, curr.urlHash, now);\n    }\n\n    /// @dev set the per-factor fee\n    /// @param _fee is the new fee\n    function setPerFactorFee(uint _fee) external onlyOwner {\n        perFactorFee = _fee;\n    }\n}",
  "sourcePath": "/Users/dylanfinn/dev/We_All_Rise/contracts/rise.sol",
  "compiler": {
    "name": "solc",
    "version": "0.5.8+commit.23d335f2.Emscripten.clang"
  },
  "schemaVersion": "3.0.11",
  "updatedAt": "2019-07-02T21:16:45.811Z",
  "devdoc": {
    "author": "Dylan Finn",
    "details": "conforms to the ERC721 non-fungible token standardRise contract behavior and framework",
    "methods": {
      "_initializeNodelet(uint256)": {
        "details": "initialize a nodelet"
      },
      "isOwner()": {
        "details": "Returns true if the caller is the current owner."
      },
      "owner()": {
        "details": "Returns the address of the current owner."
      },
      "renounceOwnership()": {
        "details": "Leaves the contract without owner. It will not be possible to call `onlyOwner` functions anymore. Can only be called by the current owner.     * > Note: Renouncing ownership will leave the contract without an owner, thereby removing any functionality that is only available to the owner."
      },
      "setPerFactorFee(uint256)": {
        "details": "set the per-factor fee",
        "params": {
          "_fee": "is the new fee"
        }
      },
      "transferOwnership(address)": {
        "details": "Transfers ownership of the contract to a new account (`newOwner`). Can only be called by the current owner."
      }
    },
    "title": "We All Rise"
  },
  "userdoc": {
    "methods": {
      "_initializeNodelet(uint256)": {
        "notice": "no logic relies on timestamps, so \"now\" is safe in this case"
      }
    },
    "notice": "This is the core behavior smart contract for a non-fungible and decentralized cloud hosting service, designed for freedom, privacy, and fair pricingdraft and mvp design"
  }
}